:100000000C9453030C9470030C9470030C947003C1
:100010000C9470030C9470030C9470030C94700394
:100020000C9470030C9470030C9490160C94CC15E3
:100030000C94D01B0C9470030C9470030C947003FC
:100040000C9470030C9470030C9470030C94700364
:100050000C9470030C94741B0C9470030C94700338
:100060000C9470030C9470030C9470030C94700344
:100070000C9470030C9470030C9470030C94700334
:100080000C9470030C9470030C9470030C94700324
:100090000C9470030C9470030C9470030C94700314
:1000A0000C9470030C9470030C94700320072207C7
:1000B0002D072407260728072A072C072F073107B3
:1000C00033073E073507370739073B073D0740072A
:1000D000E207E207200820085C08650A0C0A650AA6
:1000E0007C08650A6909690976097609760976093D
:1000F0007609760976097609760976097609760908
:1001000076097609760976098709AF09B409BB092A
:10011000D3092A0B2D0B300B330B360B390B3C0B51
:10012000DD130414A4150414A4154C146F14A415A1
:100130006D1580150D1E101E1F1E131E181E1D1E70
:100140001B1EE622E622F922F922EF22F922F922E9
:10015000F922E622E622F422F922F922F4222900E9
:100160002B000151D75CE00000001E0014000400C9
:100170001D00E0002B081F001A0016001B00E00005
:100180002A002000080007000600E2002C002100E1
:10019000150009001900E3000100220017000A0001
:1001A00005000000010035002D0000002F000000B8
:1001B00001002E0034000000300000000100230088
:1001C0001C000B0011000000140C240018000D008E
:1001D00010002C08010025000C000E003600010064
:1001E0002800260012000F003700010002512700EE
:1001F000130033003800350135082D003100280088
:10020000D85C0D1C0000010001000100010001008C
:1002100000003A00AC00A8000100010001003B0012
:10022000AE00AA0001000100C95C3C00AB00A900BF
:1002300001000100CA5C3D00010001000100010055
:1002400001003E000100010001000000C35C01004C
:100250000100000001000000F45C0100010000004A
:1002600001000000C25C3F000100500001000000DE
:1002700001004000010051000100010001004100A7
:100280000100520001000100C55C420001004F0066
:100290000100010001004300010001000100010014
:1002A00001004400450001000100010000000100C0
:1002B000010001000100010000000100500D500C80
:1002C0000100010001000100090C510C01000100B6
:1002D00001000100060C520C0100010001000100A8
:1002E0004F0D4F0C01000100010001000100010051
:1002F00001000000010001000100000001000000F9
:1003000001000100010000000100000001000100E7
:10031000500D500C0100000001000100090C510CAF
:100320000100010001000100060C520C0100010057
:10033000010001004F0D4F0C010001000100010000
:1003400001000100010001000100010001000100A5
:10035000010001000000000000000000000000009B
:100360000101010101010101010202020202020276
:100370000203030303030303040404040405050543
:100380000505060606060607070707080808080900
:1003900009090A0A0A0B0B0B0C0C0C0D0D0D0E0EA5
:1003A0000E0F0F1010101111121213131414151533
:1003B00016161717181819191A1A1B1C1C1D1D1EA2
:1003C0001F1F2021212223232425252627282829F1
:1003D0002A2B2C2C2D2E2F30313132333435363719
:1003E00038393A3B3C3D3E3F404142434445464715
:1003F00048494B4C4D4E4F50525354555758595AEB
:100400005C5D5E606163646567686A6B6C6E6F718A
:1004100072747677797A7C7D7F8182848687898BF6
:100420008D8E9092949597999B9D9FA1A2A4A6A82A
:10043000AAACAEB0B2B4B6B9BBBDBFC1C3C5C8CA21
:10044000CCCED0D3D5D7DADCDEE1E3E6E8EAEDEFD7
:10045000F2F4F7F9FCFFFFAA7F554005010980A1DE
:100460000185031601002603001A81002A83007506
:100470001095018100C0050C0901A1018504160138
:1004800000269C021A01002A9C0275109501810029
:10049000C005010906A1018505050719E029E71531
:1004A00000250195087501810205081901290595A6
:1004B0000575019102950175039101050719002940
:1004C000EF1500250195F075018102C005010906AF
:1004D000A101050719E029E7150025019508750117
:1004E0008102950175088101050819012905950505
:1004F000750191029501750391010507190029FF06
:10050000150026FF00950675088100C009023B0012
:10051000020100A0FA090400000103010100092101
:10052000110100012240000705810308000A0904A7
:1005300001000103000000092111010001227100E6
:100540000705820320000A1201100100000008EDD7
:10055000FE0713010001020301040330000000162E
:10056000034500720067006F0044006F00780020B0
:100570000045005A00000016034500720067006F36
:100580000044006F007800200045005A000000047D
:1005900003090400047F3F1F643214643214783C62
:1005A0001E1E140A052223252628292A2C2D2F3029
:1005B00032333536383A3B3D3E4042434547494A5F
:1005C0004C4E5051535557595A5C5E606264666890
:1005D000696B6D6F71737577797B7D7F818385879B
:1005E000898A8C8E90929496989A9C9E9FA1A3A59E
:1005F000A7A8AAACAEAFB1B3B4B6B8B9BBBCBEBFC6
:10060000C1C2C3C5C6C7C9CACBCCCDCED0D1D2D248
:10061000D3D4D5D6D7D7D8D9D9DADADBDBDBDCDC53
:10062000DCDCDCDDDDDDDDDCDCDCDCDCDBDBDBDA0B
:10063000DAD9D9D8D7D7D6D5D4D3D2D2D1D0CECD76
:10064000CCCBCAC9C7C6C5C3C2C1BFBEBCBBB9B883
:10065000B6B4B3B1AFAEACAAA8A7A5A3A19F9E9C08
:100660009A98969492908E8C8A89878583817F7DD3
:100670007B79777573716F6D6B6968666462605EB4
:100680005C5A5957555351504E4C4A49474543427D
:10069000403E3D3B3A3836353332302F2D2C2A2917
:1006A00028262523220011241FBECFEFDAE0DEBF6B
:1006B000CDBF11E0A0E0B1E0EEE5F0E502C00590AD
:1006C0000D92AE3EB107D9F723E0AEEEB1E001C026
:1006D0001D92A436B207E1F70E94C8180C942D2889
:1006E0000C9400008F929F92AF92BF92CF92DF92B4
:1006F000EF92FF920F931F93CF93DF93CDB7DEB7A7
:1007000028970FB6F894DEBF0FBECDBFFC01F08076
:10071000118183819481892B09F40EC71F3F21F435
:100720000FEFF01609F408C76F0185E0DE0111969E
:1007300001900D928A95E1F7F601228189819A81D3
:10074000222349F00E94051D082F682F89819A8174
:100750000E947E1D03C00E94511D082F26E0129F9B
:10076000F001112434E5039FE00DF11D1124EF0D7C
:10077000F11DEE0FFF1FE25AFE4F05911491F60195
:100780008281053FFCE51F0791F0063F2CE512072B
:1007900031F0043F3CE5130709F069C004C0882329
:1007A00009F4CAC633C0882309F4C6C64BC08823DF
:1007B00009F4C2C69091C30281E089278093C302E5
:1007C000BBC61092EF01F60192810A3CFCE51F07BF
:1007D00009F46AC208F430C1013D2CE5120709F49E
:1007E000D5C240F1053DECE51E0709F4F5C208F459
:1007F00074C10D3D8CE5180709F4F9C20E3DECE516
:100800001E0709F072C1992309F496C628960FB6FF
:10081000F894DEBF0FBECDBFDF91CF911F910F9136
:10082000FF90EF90DF90CF90BF90AF909F908F9010
:100830000C94671C0D3C8CE5180709F038C199230E
:1008400009F47AC681E028960FB6F894DEBF0FBE91
:10085000CDBFDF91CF911F910F91FF90EF90DF906F
:10086000CF90BF90AF909F908F900C94260E8823CE
:1008700019F1033E8CE51807C1F050F4013EECE598
:100880001E0781F0023EFCE51F07B1F481E010C0B5
:10089000043E2CE5120759F0053E3CE5130761F4D0
:1008A00084E006C01092280205C082E001C083E007
:1008B000809328020E943C0E17FF73C0F6018281CC
:1008C000882309F46EC08091F6018093EE011092A6
:1008D000F60180912802813071F048F08230D1F029
:1008E0008430F1F486EE0E94592588E117C082EE2B
:1008F0000E946C2515C082EE9AE00E94B51288E134
:100900000E946C2588E10E94FD2482ED9AE00E94FD
:10091000B51206C082EE0E946C2587E50E9459251B
:100920008FE39CE90197F1F700C000007801E8949B
:10093000F7F85CE0A52EB12CC7010A2C02C09695F1
:1009400087950A94E2F7282F2F7041F0822F90E0CC
:100950002A3010F44D9604C0069702C087E290E05A
:100960000E94592594E0A91AB108ECEFAE16EFEFFA
:10097000BE0611F780912802813039F040F08230B4
:1009800031F0843051F488E206C08CE204C082EE7B
:100990000E94FD2402C00E9459258091EE0180939F
:1009A000F601003FFCE51F07C1F188F4083D3CE576
:1009B0001307D9F0093D8CE51807D9F1073D9CE5EF
:1009C000190709F0FECE26E241EE61EE11C0023FAA
:1009D000ECE51E0751F128F1033F2CE5120709F061
:1009E000F0CE27E246EE66EE03C027E245EE65EE66
:1009F000C60128960FB6F894DEBF0FBECDBFDF91BB
:100A0000CF911F910F91FF90EF90DF90CF90BF900B
:100A1000AF909F908F900C94F42126E240EE60EE10
:100A2000E7CF27E244EE64EEE3CF26E242EE62EE49
:100A3000DFCF28E241E0DBCF033C3CE5130709F4BC
:100A4000C4C0E8F40531ECE51E0778F40230FCE59B
:100A50001F0708F0D3C101152CE5120709F44AC09D
:100A600001301C4509F488C064C206318CE51807C2
:100A700009F42BC2023C1C4509F487C05AC2063C4B
:100A8000FCE51F0709F4E3C050F4043C3CE5130700
:100A900009F4B6C0053C1C4509F4CDC04AC2083C67
:100AA000ECE51E0709F4E9C008F4DDC0F3C00E3C14
:100AB000ECE51E0750F40B3CFCE51F0709F416C1DA
:100AC0000C3C1C4509F41BC134C20F3C3CE5130728
:100AD00009F446C108F439C14EC1033D2CE51207A3
:100AE00009F46AC108F45DC16CC10C3D1C4509F0F4
:100AF00020C277C1992309F41FC51092F6010E9404
:100B0000D5240FEF14E32CE0015010402040E1F712
:100B100000C00000F89481E08093E00080E28093C0
:100B2000D8001092C9008FE19EE40197F1F700C050
:100B300000001DBA109268001CBC10BE1FBA1092B3
:100B40007A0010926E0010926F0010927100109255
:100B500072001092C9001092BC0014B817B81AB8ED
:100B60001DB810BA1092BC0015B818B81BB81EB842
:100B700011BA0C94003FE0C4992309F4DDC48091BC
:100B80004F02816080934F02D7C4992309F4D4C4E3
:100B90008091640280FF14C028960FB6F894DEBFDF
:100BA0000FBECDBFDF91CF911F910F91FF90EF90BE
:100BB000DF90CF90BF90AF909F908F900C94660C79
:100BC00081608093640286953ECE992309F4B4C473
:100BD0008091F6018272D9F028960FB6F894DEBFA4
:100BE0000FBECDBFDF91CF911F910F91FF90EF907E
:100BF000DF90CF90BF90AF909F908F900C94290E74
:100C0000992309F499C48091F601827229F32896F8
:100C10000FB6F894DEBF0FBECDBFDF91CF911F910D
:100C20000F91FF90EF90DF90CF90BF90AF909F908B
:100C30008F900C94320E992309F47EC48091650242
:100C400021E04091670260916602845F3BC0992376
:100C500009F472C48091650221E0409167026091BD
:100C600066028C502FC0992309F466C46091660215
:100C70002FEF620F08F46FEF09C0992309F45CC4E9
:100C8000609166022FEF621B08F460E021E0409162
:100C9000670216C0992309F44FC4409167022CE003
:100CA000420F08F44FEF09C0992309F445C440915D
:100CB00067022CE0421B08F440E021E060916602EC
:100CC0008091650228960FB6F894DEBF0FBECDBFA7
:100CD000DF91CF911F910F91FF90EF90DF90CF9018
:100CE000BF90AF909F908F900C94480D992309F47A
:100CF00023C480916802833060F48F5F08C0992319
:100D000009F41AC480916802882319F081508093F5
:100D10006802609164027091650280916602909110
:100D2000670228960FB6F894DEBF0FBECDBFDF91E5
:100D3000CF911F910F91FF90EF90DF90CF90BF90D8
:100D4000AF909F908F900C944A0C992309F4F4C3B0
:100D50000E942F0C8250833008F459CF82E073CD6B
:100D6000992309F4E9C30E942F0C8650823008F4BD
:100D70004ECF86E068CD992309F4DEC30E942F0C84
:100D80008950853008F443CF89E05DCD992309F47B
:100D9000D3C30E942F0C8F50853008F438CF8FE0DA
:100DA00052CD992309F4C8C30E942F0C855182307B
:100DB00008F42DCF85E147CD992309F4BDC388E11F
:100DC00042CD992309F4B8C30E942F0C8951893070
:100DD00008F41DCF89E137CD992309F4ADC383E22F
:100DE00032CD992309F4A8C310922502A5C39923F3
:100DF00009F4A2C382E0809325029EC3992309F4DB
:100E000098C00E945C1C811102C00E94671C84E093
:100E100090E00E947D2690E090933B0280933A02FE
:100E2000F801E350FC45E231F10530F4EA5AFF4F96
:100E300080913A020C94ED2680913A02816027C09D
:100E4000826025C0846023C0806121C080621FC091
:100E500080641DC080681BC08460886018C08E7F5D
:100E600016C08D7F14C08B7F12C08F7E10C08F7D07
:100E70000EC08F7B0CC08F770AC08B7F877F07C027
:100E800087FB222720F991E0922790FB87F9809336
:100E90003A0260913A0284E090E00E94912610921A
:100EA000F60128960FB6F894DEBF0FBECDBFDF91D6
:100EB000CF911F910F91FF90EF90DF90CF90BF9057
:100EC000AF909F908F900C94D5248091F601992338
:100ED00089F0982F9A7A81E009F480E08093F001FC
:100EE000811102C069E201C065E38BE692E00E94D5
:100EF000241C0BC08091F001811102C069E201C085
:100F000065E38BE692E00E94F91B28960FB6F894F1
:100F1000DEBF0FBECDBFDF91CF911F910F91FF902C
:100F2000EF90DF90CF90BF90AF909F908F900C94F8
:100F3000BF1CF60100811181992349F0C8010E946C
:100F4000051DF82E682FC8010E947E1D04C0C8012F
:100F50000E94511DF82EB8018F2D0E94420E182FAD
:100F6000382FF601258122952F70028101111092F0
:100F700001038091FF028770A9F0002399F080E2BD
:100F8000810F883078F082E02F8338879E830E941B
:100F9000B21E8091FF028770EE24E3942F81388582
:100FA0009E818111E12CA92EA2944FE0A422B12CA4
:100FB000FCE0AF16B10408F088C2F501E859FF4F14
:100FC0000C94ED26892F807F9F70F92E882319F0CD
:100FD000F29480EFF8220023B9F0FF2009F406C252
:100FE00080E2810F883010F0311106C09091F60137
:100FF000F92AF092F60105C090910103F92AF092C6
:1010000001030E94BF1CF2C1812F38870E94FD247A
:101010003885FF2009F459C2105EF094183010F0A2
:10102000311106C09091F601F922F092F60105C047
:1010300090910103F922F09201030E94BF1C45C266
:10104000492F407F892F8F70403211F08295807F29
:10105000332319F03130E9F025C0002381F03091BD
:101060000203222351F0213041F4982F932B39179A
:1010700009F42BC29093020328C2832B3FC1222381
:1010800019F0213009F421C28E830E94B91C8E818F
:101090003BC1002321F0223008F017C22FC12111DB
:1010A00014C232C1002321F0222309F427C19EC1BA
:1010B000222309F429C1ACC1292F26952695237036
:1010C00030E02115310521F02130310559F0FDC105
:1010D000002319F0812F937002C080E090E00E94FD
:1010E000D22101C2002319F0812F937002C080E049
:1010F00090E00E94BC21F7C1892F837009F071C074
:101100000111EFC1812F829586958770880F880F16
:10111000412F4F7050E060E070E04A015B01082E03
:1011200004C0880C991CAA1CBB1C0A94D2F714FF9B
:1011300012C00FE010E020E030E004C0000F111FEB
:10114000221F331F8A95D2F7B901A8014095509507
:101150006095709503C040E050E0BA019695969571
:101160009370892F90E082309105E9F083309105EA
:1011700079F100910303109104032091050330914C
:101180000603019759F0482959296A297B29CB017F
:10119000BA01602371238223932320C0802A912ADD
:1011A000A22AB32A15C0482959296A297B29809186
:1011B000030390910403A0910503B09106038A01F3
:1011C0009B01082719272A273B27C901B80106C018
:1011D000CB01BA01682979298A299B290E94EC1E32
:1011E00080C1002319F0892F817001C08695882362
:1011F00009F477C1812F829586958770880F880FB3
:10120000412F4F7050E060E070E04A015B01082E12
:1012100004C0880C991CAA1CBB1C0A94D2F714FFAA
:1012200012C00FE010E020E030E004C0000F111FFA
:10123000221F331F8A95D2F7B901A8014095509516
:101240006095709503C040E050E0BA019695969580
:101250009370892F90E082309105E9F083309105F9
:1012600079F10091FB021091FC022091FD02309176
:10127000FE02019759F0482959296A297B29CB0197
:10128000BA01602371238223932320C0802A912AEC
:10129000A22AB32A15C0482959296A297B29809195
:1012A000FB029091FC02A091FD02B091FE028A0126
:1012B0009B01082719272A273B27C901B80106C027
:1012C000CB01BA01682979298A299B290E94AE1D80
:1012D00008C1412F50E0FA01E05EF109E531F10566
:1012E00008F07FC0EC58FF4F0C94ED261F70892F3B
:1012F0008F71002331F00E94CB1E812F0E94F324B6
:10130000E4C00E948D1E812F0E94E824DEC00023CD
:1013100011F12111DAC0292F2F7181E090E0A0E0B6
:10132000B0E0AC01BD0104C0440F551F661F771F1C
:101330002A95D2F78091FB029091FC02A091FD02C8
:10134000B091FE028A019B01082719272A273B2713
:10135000C901B80125C0223008F0B7C0DCCF002396
:1013600029F0892F8F712EC00023D9F3892F8F7117
:101370000E948D1EAAC0002381F0292F2F7181E0C9
:1013800090E0A0E0B0E0BC01CD0104C0660F771F83
:10139000881F991F2A95D2F703C060E070E0CB0147
:1013A0000E94AE1D92C0002381F0192F1F71812F62
:1013B0000E94CB1E28E0129FC001112483608093FD
:1013C000FF02812F0E94CB1E80C081E02F830E94EC
:1013D000B21E2F81223008F478C082E00E94B21E33
:1013E00074C0002339F0222309F4BBCF812F0E945F
:1013F0006C256BC0222309F4B9CF193349F43FEFB0
:1014000083EC99E0315080409040E1F700C000004B
:10141000812F0E94FD2459C0323FB1F028F4303FA3
:1014200049F0313FF9F028C0343FB9F058F0353F6A
:1014300071F022C0002309F456C090915F0381E04F
:10144000892708C081E0082700935F034CC0011181
:101450004AC081E080935F0346C0011144C01092EE
:101460005F0341C0002329F080915E03882329F3A4
:1014700029C0222311F337C080915E032223C1F0DB
:10148000882341F090915F0381E0892780935F0377
:1014900010925E03812F002319F00E946C2523C057
:1014A0000E94FD2486E0F60111928A95E9F71BC09F
:1014B0008823C9F0011117C090915F0381E089274B
:1014C00080935F0310925E030EC0F8E0AF16B10484
:1014D00041F04CF01AE0A11AB10822E0A216B104C2
:1014E00010F40E94E821EE2039F18091FF0280FD86
:1014F00023C0F60112828595859585950E94CB1EA5
:10150000C6010E9472038091FF028595859585959D
:1015100028960FB6F894DEBF0FBECDBFDF91CF91F6
:101520001F910F91FF90EF90DF90CF90BF90AF9001
:101530009F908F900C948D1E28960FB6F894DEBF66
:101540000FBECDBFDF91CF911F910F91FF90EF9014
:10155000DF90CF90BF90AF909F908F900895909123
:101560003A0292FF0DC0282F2871283019F4877F86
:10157000846006C0282F2471243011F48B7F88608A
:1015800093FF0DC0282F2871283119F4877E8461BC
:1015900006C0282F2471243111F48B7E886194FDBC
:1015A000877E0895282F277081E090E001C0880F82
:1015B0002A95EAF78095909101038923809301038E
:1015C0000C94BF1C282F277081E090E001C0880F89
:1015D0002A95EAF790910103892B809301030C94DB
:1015E000BF1CCF93E82F873058F58091120190915E
:1015F0001301892B09F042C0CE2F80E40E946B12A8
:101600009093130180931201892BB1F482E10E941F
:1016100044129093130180931201892B69F481E0A5
:1016200090E001C0880FCA95EAF780950E944412A5
:10163000909313018093120184E98093BC001EC033
:1016400090E0FC013797E730F105C0F4E757FF4F12
:101650000C94ED26209A289811C0219A29980EC042
:10166000229A2A980BC0239A2B9808C0529A5A980B
:1016700005C0539A5B9802C03E9A4698CF91089550
:10168000CF93DF93873008F047C08091120190918B
:101690001301892B09F049C080E40E946B129093DA
:1016A000130180931201892B11F080E031C083E196
:1016B0000E9444129093130180931201892BA9F781
:1016C00081E40E946B129093130180931201892B85
:1016D00061F784E88093BC000E94C41BEC019091E8
:1016E000BC0097FD0EC00E94C41B8C1B9D0B843652
:1016F0009105A8F38EEF9FEF909313018093120151
:10170000D4CF8091BB0080951092130110921201EA
:1017100094E99093BC000AC09FB18FB1807F8695F9
:1017200086959370892B809501C080E0DF91CF91E1
:101730000895EF92FF920F931F93CF93DF938091C1
:10174000640280FF2EC0EFB6F090BC00F894809148
:10175000BC008B7F8093BC008BB18C7F8BB9509881
:10176000589A5198599A35E03A95F1F700008AB1A4
:101770008C7F8AB985E08A95F1F70000519A5998D3
:10178000E5E0EA95F1F70000509A5898F5E0FA95EF
:10179000F1F7000084E80E946122CEE0D3E08E01E0
:1017A0000DC080E090E0FC01E25FFC4F11821082EE
:1017B000128204968C339105B1F7C5CFF3E00A3459
:1017C0001F0731F0F80181918F010E946122F6CF4D
:1017D0005098589A35E03A95F1F700005198599A87
:1017E00085E08A95F1F70000EFBEF092BC00579AB1
:1017F0008BB18F779BB190682FB7F894E3E0CA3430
:10180000DE0789F0399148E09BB9000000C037FF3E
:101810008BB9330F000000C000C000C08BB900C0FE
:101820004A9591F7EBCF2FBFDF91CF911F910F9189
:10183000FF90EF9008959091640290FF0FC020E018
:1018400030E0F901E25FFC4F8183608342832C5FCB
:101850003F4F2C333105A9F70C94990B08958091D3
:10186000640280FF02C08695089580E0089580910B
:101870006402282F269530E02115310519F4817076
:10188000826005C02532310524F081708864809320
:1018900064020895CF93DF9300D000D0CDB7DEB7B8
:1018A000AB01BC0149835A836B837C830E94370C54
:1018B00049815A816B817C8188E090E00F900F9084
:1018C0000F900F90DF91CF910C94A326E4E6F2E005
:1018D00080818E7F808360817181828193810E946B
:1018E0004A0C10926A022FEF80E792E0215080406C
:1018F0009040E1F700C000000C94990BE4E6F2E0A0
:1019000083E0808311828FEF8283838314826081DE
:101910007181828193810C944A0CAF92BF92CF92D5
:10192000DF92EF92FF920F931F93CF93DF93D82E06
:10193000C62EE901E42FF0E0611106C0EA5AFC4F1F
:101940004491E42F842F7BC0E62EF12C26E0829F69
:10195000C00111240FEF10E0B8010E94C5265BEA18
:1019600056039001579F300D11242D0D311D2D0D63
:10197000311D822F880F280FC8018E199F098E9F55
:10198000D0018F9FB00D9E9FB00D11249B2F2C9DD9
:1019900060011124CD2CDD245801AC18BD08AE9E89
:1019A0006001AF9ED00CBE9ED00C11245801A21A2B
:1019B000B108AE9C9001AF9C300DBE9C300D11243F
:1019C000232F3327021B130B0E9F90010F9F300D07
:1019D0001E9F300D1124832F6230710591F04CF45D
:1019E00061157105E9F061307105C1F4842F4D2D49
:1019F00017C06430710571F044F06630710581F0F4
:101A00000DC0842F4B2F932F0BC0E42F4B2F9E2FF5
:101A10008D2D06C08B2F942F432F02C08B2F9D2D11
:101A2000E42FF0E0EA5AFC4F4491E82FF0E0EA5A44
:101A3000FC4F8491E92FF0E0EA5AFC4FE49149838E
:101A40008883EA83DF91CF911F910F91FF90EF90F0
:101A5000DF90CF90BF90AF900895CF93DF9300D0E9
:101A600000D0CDB7DEB79091640290FF0AC09E010E
:101A70002F5F3F4F0E948D0C4B8169818A810E94AC
:101A80001B0C0F900F900F900F90DF91CF91089546
:101A90005F926F927F928F929F92AF92BF92CF92FE
:101AA000DF92EF92FF920F931F93CF93DF9300D0BB
:101AB00000D0CDB7DEB7182F762E042F622E90916E
:101AC000640290FF6DC0E92FE695AE2FB0E0A05EF6
:101AD000BE4F8C91809369029E7F923061F49E018B
:101AE0002F5F3F4F812F0E948D0C4B8169818A812E
:101AF0000E941B0C43C0823019F4009167023EC063
:101B0000863019F41091650239C08930D9F38931D2
:101B1000A9F5E9518E2F8170582EE695F0E0EA5A2A
:101B2000FB4FA590B4908EE0C82E83E0D82EE12C18
:101B3000F12CBB249FE0892E912CEA9CC001EB9CE8
:101B4000900DFA9C900D1124B4010E94C526812F9E
:101B5000511002C0860F01C0861B9601402F672DD1
:101B60000E948D0C8FEFE81AF80A84E0C80ED11C91
:101B70008FE0E816F10409F70E94990B10936502B3
:101B80007092660200936702662051F060916402D1
:101B90007091650280916602909167020E944A0CE2
:101BA0000F900F900F900F90DF91CF911F910F9199
:101BB000FF90EF90DF90CF90BF90AF909F908F906D
:101BC0007F906F905F9008959091640290FF3DC068
:101BD0009170811102C0926006C0853210F0986445
:101BE00002C0880F982B90936402662351F0609195
:101BF00064027091650280916602909167020E9472
:101C00004A0C60916402669570E04BE050E086E01B
:101C100091E00E942028892B19F010926A0209C0D5
:101C200081E080936A020E94C41B90935F028093BC
:101C30005E0281E08093610220E040916702609142
:101C40006602809165020C94480D089561E00C9441
:101C5000E40D809164028695815009F484E261E08C
:101C60000C94E40D8091640286958F5F853208F0B4
:101C700081E061E00C94E40D609128028CE090E03A
:101C80000C949126CF93DF9326E0729FF0011124EC
:101C900034E5839FE00DF11D1124E60FF11DEE0FD9
:101CA000FF1FE25AFE4FC591D491CE01C238D10533
:101CB00049F1B0F4C133D10509F464C048F4C93224
:101CC000D10509F458C0CA32D10509F462C068C010
:101CD000C533D10509F448C0C933D10599F060C0B6
:101CE000C33ED10541F138F4C03ED10591F0C23E6A
:101CF000D105B1F055C0C63ED10521F1C73ED10591
:101D000061F14EC020913A0220FD14C221FD12C2A1
:101D100013C220913A0220FF0FC289E390E00CC267
:101D200020913A0222FF08C280913A0284FDB4C198
:101D300083EE90E001C280913A0282FFF5CF82EEFD
:101D400090E0FAC120913A0223FFF6C180913A0255
:101D500084FDA2C187EE90E0EFC180913A0283FF3B
:101D6000F5CF86EE90E0E8C120913A0225FFE4C16C
:101D700089E290E0E1C120913A0225FFDDC185E3CF
:101D800090E0DAC120913A0226FFD6C18AE290E0C3
:101D9000D3C120913A0226FFCFC181E390E0CCC1AC
:101DA000C11520E5D20708F047C0C11530E4D307BC
:101DB00008F034C1C83ED10518F5C03ED10508F081
:101DC000BBC1C83AD10570F4C53AD10508F0B0C01E
:101DD000C130D10509F4B0C108F45EC1249708F4FC
:101DE0005BC1AAC1CF3BD10508F4ADC0C03CD10551
:101DF00008F452C1FE01EE0FFF1FEA52FE4F02C16E
:101E0000C11520E2D20760F4C11531E0D30708F014
:101E100093C1C03FD10508F43FC1CE0190658CC18C
:101E2000C11580E3D80708F0F0C0FE01FF70EE0F87
:101E3000FF1FEA5AFC4FE6C0C11595E5D90708F027
:101E400044C0C11524E5D20708F000C1C11532E530
:101E5000D30710F5C11581E5D80708F0E3C02C2F92
:101E6000237081E090E002C0880F991F2A95E2F765
:101E70009C689E0174E0369527957A95E1F723706A
:101E8000922BEC2FEF70E695E69530E2E39FF001A0
:101E900011248E2B9F2B50C18C2F86958695AE01D9
:101EA00043705527C115D34508F0C1C090E2899F02
:101EB0009001112481E090E002C0880F991F4A959B
:101EC000E2F7822B932B9C6837C1C1152AE5D20714
:101ED000A0F4C11539E5D30708F0C6C0C11586E5E1
:101EE000D80708F4B8C0C11598E5D90708F4D4C0DC
:101EF0009C2F8827806F906A1FC1C1152BE5D207E0
:101F000008F4CAC0CE01C1153CE5D30708F4C1C02E
:101F100090568115904208F0BFC08D2F8F710E949E
:101F2000AF0AFE01FF27F0628F719F01382BAFC00F
:101F3000C53AD10509F4B3C0C63AD10509F0B2C01B
:101F400082E890E4F9C0C83AD10509F4AEC0C93AB4
:101F5000D10509F4ADC0CA3AD10509F4ACC0CB3AF9
:101F6000D10509F4ABC0CC3AD10509F4AAC0CB3BEA
:101F7000D10509F4A9C0CC3BD10509F4A8C0CD3ADC
:101F8000D10509F4A7C0C03BD10509F4A6C0CE3ADB
:101F9000D10509F4A5C0CF3AD10509F4A4C0C13BCD
:101FA000D10509F4A3C0C23BD10509F4A2C0C33BCB
:101FB000D10509F4A1C0C43BD10509F4A0C0C53BBB
:101FC000D10509F49FC0C63BD10509F49EC0C73BAB
:101FD000D10509F49DC0C83BD10509F49CC0C93B9B
:101FE000D10509F49BC0CD3BD10509F49AC0CE3B85
:101FF000D10509F499C0CA3BD10509F498C080E025
:1020000094E49AC08591949197C09E013327C901A9
:10201000D3FF02C0986C90C0906C8EC0CE019F70B0
:10202000906A8AC09C2F8827816F906A85C090E251
:10203000899F9001112481E090E002C0880F991FD0
:102040004A95E2F7822B932B9A6876C09C2F8827BB
:10205000846F906A71C08C2F0E94AF0A8F7190E0DC
:10206000982F8827906268C08C2F8F700E94AF0ACB
:10207000FE0194E0F695E7959A95E1F7EF70F0E0B0
:10208000FE2FEE27F06A8F70806E9F01282BC9010A
:1020900053C09927906650C080E090E04DC081E821
:1020A00090E44AC083E890E447C082EE94E444C0E0
:1020B00089EE94E441C08AEE94E43EC085EB94E45A
:1020C0003BC086EB94E438C083EB94E435C084EBEA
:1020D00094E432C087EB94E42FC08CEC94E42CC0E1
:1020E0008DEC94E429C083E895E426C08AE895E461
:1020F00023C082E995E420C084E995E41DC081E213
:1021000096E41AC083E296E417C084E296E414C011
:1021100085E296E411C086E296E40EC087E296E47A
:102120000BC08FE694E408C080E794E405C08AE21F
:1021300096E402C080EE90E0DF91CF91089580E2B6
:1021400090E090931301809312018091F40181112A
:1021500011C01092B9008CE08093B80081E08093A8
:10216000F4012FEF83ED90E3215080409040E1F7A0
:1021700000C0000080E40E946B12909313018093D2
:102180001201892B09F040C080E00E944412909314
:10219000130180931201892BB9F580E00E9444124B
:1021A0009093130180931201892B71F58FE30E94A4
:1021B00044129093130180931201892B29F584E92D
:1021C0008093BC0080E40E946B1290931301809373
:1021D0001201892BC9F48CE00E94441290931301E0
:1021E00080931201892B81F480E00E944412909325
:1021F000130180931201892B39F48FE30E9444125A
:10220000909313018093120184E98093BC00809124
:102210001201089556985E9825982D9826982E9824
:1022200027982F988FEF90E09093890080938800F3
:1022300090938B0080938A0090938D0080938C0004
:10224000259A2D9A2FEF80E792E021508040904010
:10225000E1F700C00000269A2E9A2FEF80E792E067
:10226000215080409040E1F700C00000279A2F9A4B
:102270002FEF80E792E0215080409040E1F700C0CE
:10228000000025982D982FEF80E792E021508040A4
:102290009040E1F700C0000026982E982FEF80E7CD
:1022A00092E0215080409040E1F700C00000279864
:1022B0002F9856985E9825982D9826982E982798AE
:1022C0002F98089584B1807F84B985B1807F85B9C6
:1022D0008AB1837F8AB98BB1837F8BB93E98469848
:1022E000089580B38C7080BB81B3836F81BB0895E8
:1022F0009F92AF92BF92CF92DF92EF92FF920F9395
:102300001F93CF93DF938091120190911301892B3A
:1023100091F08091F3018F5F8093F30181110BC0E5
:102320000E949F1090E09093130180931201892BDB
:1023300011F40E940A110CE212E023E3E22E22E0E3
:10234000F22E6801C0E0912C97E0A92EAC0E8C2FE4
:102350000E94F10A8A2D0E94F10A8C2F0E94400BE4
:10236000F6019081981721F08083BB24B39401C0BB
:10237000B12C8A2D0E94400BF7019081981719F01B
:10238000808381E001C080E0B82A9B280E9462110E
:10239000CF5FFFEFCF1ADF0A8FEFE81AF80AC730D6
:1023A00099F60E94C41B6AEF70E00E94C5269C014A
:1023B000682F8091F2018823E9F11092F201E091F7
:1023C0002602F0912702DF011E9690E07BEF8AEF54
:1023D000E82EF12C80818B3FA9F0482F50E0681740
:1023E00028F0E901C41BD50BAE0106C06701C41A71
:1023F000D50AA601420F531F4F30510514F07083C8
:1024000001C091E03196EA17FB0721F79093F201A2
:10241000911002C0911110C01092F101A0912602FA
:10242000B09127029091F201E0E4F2E080E03EE01A
:102430003E0F07C09110F0CF8091F1018111ECCFD8
:1024400016C0E80129918E014081421741F04C915C
:102450004B3F21F46C93208391E001C081E0119601
:1024600031963E13EECF9093F2018093F101892DC6
:10247000DF91CF911F910F91FF90EF90DF90CF9060
:10248000BF90AF909F900895CF93DF938093BB0050
:1024900084E88093BC000E94C41BEC019091BC00B6
:1024A00097FD0AC00E94C41B8C1B9D0B84369105AE
:1024B000A8F38EEF9FEF0CC02091B900287F81E038
:1024C00090E0283211F480E090E091958195910997
:1024D000DF91CF9108950F931F93CF93DF93C82F70
:1024E0001092BC0084EA8093BC000E94C41B8C0143
:1024F0009091BC0097FD0AC00E94C41B801B910BE9
:1025000084369105A8F38EEF9FEF2AC09091B90011
:10251000987F983041F09091B900987F903119F0F0
:102520008FEF9FEF1DC0C093BB0084E88093BC0079
:102530000E94C41BEC019091BC0097FD08C00E9452
:10254000C41B8C1B9D0B84369105A8F3DCCF8091B6
:10255000B900887F883111F0803411F780E090E075
:10256000DF91CF911F910F910895CF93DF93EC01ED
:1025700080EEFE01099581EEFE01DF91CF91099475
:10258000CF92DF92FF920F931F93CF93DF931F920F
:10259000CDB7DEB7F82E8B0199830E94DF179981A2
:1025A00081111CC0CF2CD92E01151105B1F08091DD
:1025B000E80085FD0AC08091E8008E778093E800EE
:1025C0000E94DF17882381F309C0F60181916F0112
:1025D0008093F10001501109E7CF80E00F90DF9167
:1025E000CF911F910F91FF90DF90CF9008951F938F
:1025F000CF93DF93CDB7DEB7AA970FB6F894DEBFBF
:102600000FBECDBFEDE1F2E088E08E0F9091F100BA
:1026100091938E13FBCF80911E02833009F460C02A
:1026200030F4813071F0823009F49CC0B3C08A303C
:1026300009F488C08B3009F46BC0893009F0AAC056
:1026400020C080911D02813A09F0A4C08091E80069
:10265000877F8093E8008091210290912202892B4C
:1026600021F460E289EF91E003C060E080E090E057
:1026700070E00E9465188091E8008B778093E800F5
:1026800089C080911D02813209F084C080912102AD
:1026900090912202029708F07DC08091E800877F28
:1026A0008093E8008091E80082FD05C080911B02C4
:1026B0008111F8CF6FC02091F3008091F20090E07B
:1026C000922B029729F48091F1008B7F813021F4C5
:1026D0008091F1008093F8018091E8008B7756C0DB
:1026E00080911D02813A09F055C08091210290919C
:1026F0002202892B09F04EC08091E800877F8093E9
:10270000E8008091E80080FFFCCF8091110139C082
:1027100080911D028132F1F5809121029091220277
:10272000892BC1F58091E800877F8093E8000E94A3
:10273000111880911F02809311011092F6010E94DE
:10274000D52428C080911D02813221F58091E800B6
:10275000877F8093E8000E94111880912002809367
:10276000F70118C080911D02813AA1F48091E80020
:10277000877F8093E8008091E80080FFFCCF809104
:10278000F7018093F1008091E8008E778093E80054
:102790000E9411188091E80083FFD6C180911D022C
:1027A00090911E02492F50E04A30510508F0CCC1EB
:1027B000FA01E057FF4F0C94ED26803821F0823863
:1027C00009F0C2C108C08091190290911A029923A0
:1027D00089F082600FC0809121028F70873008F0ED
:1027E000B3C18093E9008091EB0085FB882780F9D5
:1027F0001092E9009091E800977F9093E800809311
:10280000F1001092F10074C1282F2D7F09F09CC1B6
:10281000882319F0823061F097C180911F028130C6
:1028200009F092C1933009F080E080931A022EC023
:1028300080911F0281112AC0809121028F702FEF99
:10284000280F263008F080C18093E9002091EB002A
:1028500020FF1CC0933021F48091EB00806214C0F3
:102860009091EB0090619093EB0021E030E0A901A2
:1028700002C0440F551F8A95E2F74093EA00109278
:10288000EA008091EB0088608093EB001092E900F1
:102890008091E800877F2FC1811156C110911F02DE
:1028A0001F778091E3008078812B8093E3008091F3
:1028B000E800877F8093E8000E9411188091E8006B
:1028C00080FFFCCF8091E30080688093E3001111CA
:1028D00002C082E001C083E080931B0235C18058B2
:1028E000823008F031C180911F02909120028C3D0E
:1028F00053E0950779F583E08A838AE289834FB7AD
:10290000F894DE01139620E03EE051E2E32FF0E080
:1029100050935700E49120FF03C0E295EF703F5FB2
:10292000EF708E2F90E0EA3010F0C79601C0C0968D
:102930008D939D932F5F243149F74FBF8091E8001D
:10294000877F8093E8006AE270E0CE0101960E94E2
:102950006518BDC04091210250912202292F3327D2
:1029600023303105B9F06CF42130310509F4FBC096
:102970002230310509F0E8C08BE390E0ECE0F5E0AF
:1029800054C02132310509F433C02232310509F433
:102990003CC0DAC0992781309105D1F05CF4892BD5
:1029A00009F0D2C0EFE8F5E0E4918E2F90E0EFE877
:1029B000F5E038C08230910599F0039709F0C4C062
:1029C000E9E5F5E0E4918E2F90E0E9E5F5E02AC035
:1029D000E7E7F5E0E4918E2F90E0E7E7F5E022C02D
:1029E000EFE5F5E0E4918E2F90E0EFE5F5E01AC019
:1029F0004115510509F4BCC04130510509F0A4C08E
:102A000089E090E0E7E3F5E010C04115510509F4D5
:102A1000B4C04130510509F097C081E790E0EBE583
:102A2000F4E003C0009709F48FC02091E800277FED
:102A30002093E800209123023091240228173907BF
:102A400008F4C90140E0009789F120911B0222237C
:102A500009F43DC02530D9F12091E80023FD37C0AD
:102A60002091E80022FD2FC02091E80020FFEBCF4D
:102A70004091F3002091F20030E0342B009759F0A0
:102A80002830310540F444914093F100319601978C
:102A90002F5F3F4FF3CF41E02830310509F040E090
:102AA0002091E8002E772093E800CDCF4111CDCFC3
:102AB0000AC080911B02882351F0853041F080913B
:102AC000E80083FD04C08091E80082FFF2CF80918E
:102AD000E8008B778093E80037C08038A9F58091B3
:102AE000E800877F8093E80080911C028093F100CA
:102AF0008091E8008E778093E8000E94111824C02E
:102B0000811122C010911F021230F0F48091E80070
:102B1000877F8093E80010931C020E941118111106
:102B200006C08091E30087FD02C081E001C084E01F
:102B300080931B0242E061EC81E00E94301842E287
:102B400061EC82E00E9430188091E80083FF1AC097
:102B50008091E800877F8093E8008091EB0080629D
:102B60008093EB000FC082E190E0E7E4F5E05DCFF9
:102B700089E090E0EEE1F5E058CF80E490E0ECEC05
:102B8000F4E053CFAA960FB6F894DEBF0FBECDBFC8
:102B9000DF91CF911F9108951F920F920FB60F9260
:102BA00011242F933F934F935F936F937F938F9352
:102BB0009F93AF93BF93CF93DF93EF93FF93C09116
:102BC000E900CF708091EC00D82FD17080FDD0E863
:102BD0001092E9008091F000877F8093F000789454
:102BE0000E94F7121092E9008091F00088608093B3
:102BF000F000CD2BCF70C093E900FF91EF91DF91F2
:102C0000CF91BF91AF919F918F917F916F915F9184
:102C10004F913F912F910F900FBE0F901F901895DD
:102C2000E8EDF0E080818E7F80831092E2001092C8
:102C3000DA001092E100A0EEB0E08C9181608C93FC
:102C400080818F77808319BCA7EDB0E08C918E7F57
:102C50008C9380818F7E80831092F5010895CF92AE
:102C6000DF92EF92FF920F931F93CF93DF93C8ED04
:102C7000D0E088818F7E8883E7EDF0E080818160FD
:102C8000808384E082BF81E08093F50188818E7F1C
:102C9000888302EE10E0F80110821092DA0081EED3
:102CA000C82ED12CF601108288818F778883888185
:102CB0008068888388818F7D888319BC10921B026D
:102CC00010921C0210921A021092190290EEE92E34
:102CD000F12CF70180818B7F8083888181608883DC
:102CE00042E060E080E00E943018F60180818E7F33
:102CF0008083F80180818160808380818860808307
:102D0000F70180818E7F8083888180618883DF9155
:102D1000CF911F910F91FF90EF90DF90CF9008958A
:102D20001F920F920FB60F9211242F933F934F9340
:102D30005F936F937F938F939F93AF93BF93EF9323
:102D4000FF938091E10082FF09C08091E20082FF41
:102D500005C08091E1008B7F8093E1008091DA00D3
:102D600080FF2AC08091D80080FF26C08091DA00C1
:102D70008E7F8093DA008091D90080FF18C080E1B7
:102D800089BD82E189BD09B400FEFDCF81E0809359
:102D90001B028091F50181110FC00E9410160E9444
:102DA0002F168091E20084608093E20005C019BC78
:102DB00010921B021092F5018091E10080FF17C074
:102DC0008091E20080FF13C08091E2008E7F8093AB
:102DD000E2008091E20080618093E2008091D8005F
:102DE00080628093D80019BC85E080931B0280919B
:102DF000E10084FF34C08091E20084FF30C080E1B4
:102E000089BD82E189BD09B400FEFDCF8091D80063
:102E10008F7D8093D8008091E1008F7E8093E100C8
:102E20008091E2008F7E8093E2008091E2008160D9
:102E30008093E20080911C02882311F084E007C097
:102E40008091E30087FD02C081E001C083E08093B0
:102E50001B021092F6010E94D5240E94E821809165
:102E6000E10083FF27C08091E20083FF23C08091AF
:102E7000E100877F8093E10082E080931B02109243
:102E80001C028091E1008E7F8093E1008091E2003E
:102E90008E7F8093E2008091E20080618093E20067
:102EA00042E060E080E00E9430188091F00088608D
:102EB0008093F000FF91EF91BF91AF919F918F911F
:102EC0007F916F915F914F913F912F910F900FBE26
:102ED0000F901F901895CF93DF9300D01F92CDB71E
:102EE000DEB79C0190912502911105C080911B02D3
:102EF000843049F504C0923011F0943021F584E01B
:102F000089833B832A8382E08093E9008FEF90914D
:102F1000E800815095FD06C095ED9A95F1F7000007
:102F20008111F5CF8091E80085FF0DC040E050E0B1
:102F300063E070E0CE0101960E94C0128091E8002B
:102F40008E778093E8000F900F900F90DF91CF91D4
:102F50000895CF93DF9300D01F92CDB7DEB72091B5
:102F60001B02243031F523E02983805891099B838B
:102F70008A8382E08093E9008FEF9091E80081508E
:102F800095FD06C095ED9A95F1F700008111F5CFFA
:102F90008091E80085FF0DC040E050E063E070E004
:102FA000CE0101960E94C0128091E8008E77809336
:102FB000E8000F900F900F90DF91CF91089520912E
:102FC000E4003091E50095E64091EC00842F81709B
:102FD00040FF22C08091E80080FD1CC080911B0250
:102FE000882391F0853091F08091EB0085FD10C031
:102FF0004091E4005091E5004217530729F39A01EC
:10300000915011F784E0089582E0089583E00895D7
:1030100081E0089580E008954091E80042FFDECF0E
:10302000089580911D0287FF11C08091E80082FD04
:1030300005C080911B028111F8CF11C08091E8007A
:103040008B770BC080911B02882349F08091E800A8
:1030500080FFF8CF8091E8008E778093E800089594
:10306000982F973058F59093E900981739F07091A0
:10307000EC002091ED005091F00003C0242F762F3A
:1030800050E021FF19C03091EB003E7F3093EB0000
:103090003091ED003D7F3093ED003091EB003160D9
:1030A0003093EB007093EC002093ED005093F00010
:1030B0002091EE0027FF07C09F5FD3CF8F708093D2
:1030C000E90081E0089580E0089520912302309185
:1030D00024022617370748F06115710539F420914D
:1030E000E8002E772093E80001C0B90140E06115A7
:1030F0007105A9F120911B02222309F443C0253058
:1031000009F442C02091E80023FD40C02091E8006E
:1031100022FD32C02091E80020FFE9CF4091F3006A
:103120002091F20030E0342BFC01CF0161157105D4
:1031300059F02830310540F481918093F1006150BD
:1031400071092F5F3F4FF1CF41E02830310509F081
:1031500040E02091E8002E772093E800C8CF41118D
:10316000C9CF0AC080911B02882361F0853061F0CD
:103170008091E80083FD0AC08091E80082FFF2CFD1
:1031800080E0089582E0089583E0089581E0089545
:10319000CF93DF93CDB7DEB72C970FB6F894DEBF91
:1031A0000FBECDBF84B7877F84BF0FB6F894A895B4
:1031B00080916000886180936000109260000FBE73
:1031C00080E8809361001092610085B7806885BFB8
:1031D00085B7806885BF0E9410160E942F168091C7
:1031E000E20084608093E200789480911B0288233F
:1031F000A1F01091E9001F709091EC00892F81706F
:1032000090FD80E8182B1092E9008091E80083FD82
:103210000E94F7121F701093E90082E084BD93E0D2
:1032200095BD9AEF97BD80936E000E949F1090E02D
:1032300090931301809312010E9462110E947111F8
:10324000ACE2B2E0E0E4F2E09EE0D92EDE0E1192B4
:103250001D92DE12FCCF8EE090E00E94F326809358
:10326000260290932702FC010E962BEF2193E8177C
:10327000F907E1F70E945C1C811102C00E94671CE3
:103280008CE090E00E947D2690E0A0E0B0E080938A
:10329000280290932902A0932A02B0932B0289EA74
:1032A0008093800089E08093810024982C983F9837
:1032B0008AB18F7C8AB96E98479A8BB180638BB93B
:1032C000769A0E940A110E945C1C811102C00E9421
:1032D000671C82E090E00E947D2680934F0284E08C
:1032E00090E00E947D2690E090933B0280933A020A
:1032F00083E090E00E947D26682F70E080E090E0FF
:103300000E94EC1E80913C02811138C080914F02D6
:10331000816080934F020E945C1C811104C00E9456
:10332000671C0E947E0C88E090E00E9485266093D6
:1033300064027093650280936602909367026E7FC9
:1033400071F40E947E0C88E090E00E9485266093D4
:1033500064027093650280936602909367020E94F4
:10336000370C10926A028091640280FF04C060E012
:1033700086950E94E40D81E080933C0284E191E017
:1033800090933E0280933D0283E9E82E85E0F82E7B
:1033900080911B02853009F047C080911B02843068
:1033A00021F110923F0220E488E190E00FB6F894FA
:1033B000A895809360000FBE2093600083B7817F43
:1033C000846083BF83B7816083BF7894889583B717
:1033D0008E7F83BF0FB6F894A895809160008861B6
:1033E00080936000109260000FBE80911A028823C3
:1033F00009F4CECF0E949F1090E090931301809328
:1034000012010E9462110E947111E0E4F2E0119237
:10341000DE12FDCF0E947811E0E4F2E0819181118B
:10342000FDC0DE12FBCFB4CF0E947811E0E5F2E0E0
:10343000A0E4B2E000E010E0302F2D91419142274E
:10344000B9F180E090E050E0682F5A01082E02C0E8
:10345000B594A7940A94E2F7A0FE26C089833A8324
:1034600081E090E05C0102C0AA0CBB1C6A95E2F707
:10347000822F90E08A219B2121E0892B09F420E012
:103480002B830E94C41B8160782F9D838C8349818C
:103490005A816B818D810E94E620F801E05BFD4F2F
:1034A0008081A826A0821AC001968630910561F617
:1034B0000F5F1F4F0E30110509F0BECF8FEF8E83C7
:1034C0008F8318860E94C41B8160782F9A87898712
:1034D0004E815F8168858A850E94E62010914E02A8
:1034E0000E94E821181721F00E94E82180934E02E3
:1034F00080916A02882309F44BCF80916902E091A0
:103500006402E695E81BE0936002823049F4F0E043
:10351000EF55FA4FE4910E2F10E022ED30E248C053
:10352000863049F4F0E0E256FA4FE4910E2F10E0B5
:1035300022EC30E23DC0893051F4E695F0E0E556EA
:10354000FA4FE4910E2F10E026E530E231C08F30C3
:1035500051F4E695F0E0E856FA4FE4910E2F10E0B2
:1035600026EE3FE125C0853149F4F0E0EB56FA4FF5
:10357000E4910E2F10E02AE83FE11AC0883179F07B
:10358000833231F4F7010591149120E830E210C044
:10359000843251F404EF11E02DE13FE109C008EE5F
:1035A00013E025E53FE104C000ED17E020E03FE136
:1035B000809161028823A9F0109261022B873C87D9
:1035C0000E94C41BA80140955095840F951F9093AD
:1035D0005F0280935E0210926302109262023C8549
:1035E0002B8580915E0290915F022B873C870E9421
:1035F0009A1B2B853C858017910708F4C9CEE09172
:103600005E02F0915F020E0F1F1F10935F02009386
:103610005E028EE592E0F9010995BACE80E189BD9E
:1036200082E189BD09B400FEFDCF8091D8008F7D75
:103630008093D8008091E00082608093E0008091C8
:10364000E00081FDFCCFA4CE08958091F80108959B
:10365000CF93DF9320912502211103C020911B02FB
:1036600002C0223011F02430E1F520911101222313
:1036700039F020913A0227FF03C060E222E002C045
:1036800068E021E02093E9002FEF3091E80021501D
:1036900035FD06C035ED3A95F1F700002111F5CF63
:1036A0002091E80025FF1DC0EC01809111018111DE
:1036B00005C040E050E068E070E003C070E040E02A
:1036C00050E0CE010E94C0128091E8008E77809376
:1036D000E80080E2FE01A9EFB1E001900D928A9529
:1036E000E1F7DF91CF91089578941F920F920FB672
:1036F0000F9211248F939F93AF93BF9380910703F1
:1037000090910803A0910903B0910A030196A11DAD
:10371000B11D8093070390930803A0930903B0930E
:103720000A03BF91AF919F918F910F900FBE0F90A1
:103730001F901895CF92DF92EF92FF920F931F93F5
:103740002FB7F89440910703509108036091090343
:1037500070910A032FBF6A017B01EE24FF248C01C4
:1037600020E030E0C016D106E206F30610F4415026
:1037700051099A01281B390BC9011F910F91FF9024
:10378000EF90DF90CF9008952FB7F89480910703C2
:1037900090910803A0910903B0910A032FBF0895E7
:1037A0001F920F920FB60F9211248F939F93AF9396
:1037B000BF9380913F02811113C0809107039091C4
:1037C0000803A0910903B0910A034196A11DB11D00
:1037D0008093070390930803A0930903B0930A030F
:1037E000BF91AF919F918F910F900FBE0F901F903F
:1037F000189520911101222321F020913A0227FDF2
:1038000004C0FC013296089619C0262F26952695ED
:1038100026952E31C0F4FC01E20FF11D677081E0A6
:1038200090E001C0880F6A95EAF78095928189231C
:10383000828308953196E817F90729F0208126132D
:10384000F9CF1082F7CF089520911101222321F0A2
:1038500020913A0227FD05C0FC0132962FEF30E09F
:1038600019C0262F2695269526952E3120F5FC0188
:10387000E20FF11D677081E090E001C0880F6A954A
:10388000EAF79281892B828308952F3F39F03F5FB9
:10389000363041F041914613F8CF0DC04111F7CFBA
:1038A000232FF5CF2F3F39F0FC01E20FF11D27FD4B
:1038B000FA9562830895089580E090E00E948B2637
:1038C00021E08D3E9E4F09F020E0822F08956DEE9D
:1038D0007EEF80E090E00E94AF2660E082E090E022
:1038E0000E94912660E083E090E00E949126109271
:1038F000030310920403109205031092060360E084
:1039000084E090E00E94912660E085E090E00E94D3
:10391000912660E086E090E00E9491266FEF87E0BC
:1039200090E00E94912640E050E0BA0188E090E0EB
:103930000E94A32660E08DE090E00E94912640E086
:1039400050E0BA0188E190E00E94A32660E087E1A0
:1039500090E00E94912640E050E0BA018FE090E0B4
:103960000E94A32640E050E0BA0183E190E00C946D
:10397000A326809102038111109202030895909171
:1039800001038091F601892B20910003982F922B3F
:1039900090936B02809102038823D9F0892B809346
:1039A0006B0280911101882331F080913A0287FFE8
:1039B00002C08EE101C086E0EDE6F2E090E08150C9
:1039C00028F021912223D9F39F5FF9CF91110E9412
:1039D000B91CE0913D02F0913E023097A9F0809130
:1039E0001101882359F080913A0287FF07C0809126
:1039F0006B0280936C0285E080936B020280F381FE
:103A0000E02D8BE692E009940895BF92CF92DF9269
:103A1000EF92FF920F931F93CF93DF938C01C0908F
:103A20000303D0900403E0900503F0900603809117
:103A3000FB029091FC02A091FD02B091FE02C82A07
:103A4000D92AEA2AFB2ACFE1D0E0D701C6010C2E01
:103A500004C0B695A795979587950A94D2F780FFED
:103A600007C0BC2EB8018C2F0E94420E019719F49A
:103A7000219758F7B12C8B2DDF91CF911F910F918A
:103A8000FF90EF90DF90CF90BF900895CF93DF939A
:103A9000EC010E94051DBE010E94420EDF91CF91F4
:103AA0000895292F220F920F990F890F682F66957D
:103AB00066956695982F977085E0689FB0011124F0
:103AC00040E050E080E0FA01E60FF71FEC53FD4FB5
:103AD000208130E0092E02C0369527950A94E2F73E
:103AE00021703327042E01C0220F0A94EAF7822B9B
:103AF0004F5F5F4F4530510531F70895292F220F51
:103B0000920F990F890FA82FA695A695A695877055
:103B100051E001C0550F8A95EAF785E0A89FD001D2
:103B2000112420E030E070E0F901EA0FFB1FEC53B4
:103B3000FD4F4081CB01022E02C0969587950A94D5
:103B4000E2F78170992781958427852384278083D4
:103B50002F5F3F4F2530310539F70895CF92DF921F
:103B6000EF92FF920F931F936B017C01AC016627CC
:103B70007727411551056105710511F080E103C0FA
:103B8000B701A60180E0052F162F272F3327011537
:103B900011052105310519F0885FB901A8018A01D5
:103BA0009B01F4E03695279517950795FA95D1F77F
:103BB000011511052105310519F08C5FB901A80126
:103BC0008A019B01E2E03695279517950795EA95BE
:103BD000D1F7011511052105310519F08E5FB901E5
:103BE000A8017695679557954795452B462B472B0A
:103BF00009F08F5F56985E9825982D9826982E98F4
:103C000027982F98482F50E0FA013197E730F105B7
:103C1000C8F4E656FF4F0C94ED26259A2D9A17C04E
:103C2000269A2E9A2AC0259A2D9A269A2E9A3DC017
:103C3000259A2D9A04C0259A2D9A269A2E9A279A6B
:103C40002F9A33C0813019F08230B9F02EC08091A4
:103C5000C302811152C0809164028160809364022A
:103C600060E086950E94E40D60E081E00E94E40D32
:103C700020E04FEF6FEF80E015C08091C30281110B
:103C80003CC08091640281608093640260E086950C
:103C90000E94E40D60E081E00E94E40D20E04FEF1F
:103CA0006FEF83E80E94480D28C08091C302811104
:103CB00024C088E090E00E9485266093640270939F
:103CC00065028093660290936702862F60FF13C09F
:103CD00081608093640286950E94260E8091640222
:103CE00086950E94260E21E040916702609166024F
:103CF00080916502D7CF0E94660CC092FB02D092E1
:103D0000FC02E092FD02F092FE021F910F91FF90E3
:103D1000EF90DF90CF900C94C7240F931F9341E056
:103D200050E060E070E004C0440F551F661F771F2D
:103D30008A95D2F740955095609570958091FB02D9
:103D40009091FC02A091FD02B091FE028A019B01BC
:103D5000082319232A233B23C901B8011F910F917E
:103D60000C94AE1D2091FF02809582238093FF0268
:103D7000982F977079F430E0482F082E000C550BDF
:103D80002417350739F08595859585950E948D1EF8
:103D90001092FF0208950F931F9341E050E060E0FE
:103DA00070E004C0440F551F661F771F8A95D2F735
:103DB0008091FB029091FC02A091FD02B091FE0265
:103DC0008A019B01082B192B2A2B3B2BC901B80117
:103DD0001F910F910C94AE1D609303037093040325
:103DE00080930503909306030C94C7248091C2022C
:103DF00090919102891719F08F5F8770FBCF08951A
:103E00000895882319F05198599A02C0519A5998E7
:103E10005098589A95E09A95F1F70000509A589862
:103E200095E09A95F1F70000882311F0519A59987E
:103E300085E08A95F1F700000895EF92FF920F93C5
:103E40001F93CF93DF937C01CEE0D3E000E010E03E
:103E5000F7018481073011051CF4882339F002C072
:103E6000811104C09E014091670202C09E0140E0A2
:103E700060916602809165020E948D0C0F5F1F4F5A
:103E800024960F30110521F70E94990BF701248128
:103E900030E02F5F3F4F217033272483DF91CF9194
:103EA0001F910F91FF90EF900895EF92FF920F9363
:103EB0001F93CF93DF93EC012C813D812F5F3F4F08
:103EC000217033273D832C838EE0E82E83E0F82E8B
:103ED00010E005E5812F86954C815D81480F511DCD
:103EE000842F817097014091670260916602809FE4
:103EF000802D11240E948D0C1F5F84E0E80EF11CC0
:103F00001F3041F7DF91CF911F910F91FF90EF90FC
:103F10000C94990B0F931F93CF93DF9380E090E065
:103F2000FC01E25FFC4F11821082128204968C33F6
:103F30009105B1F7C0E0D0E00FE010E0CE01B8018C
:103F40000E94D926FC0180910C03082E000C990BCD
:103F5000EE0FFF1FEE0FFF1FC817D907A4F08091C7
:103F60001F01082E000C990B8C179D0764F09F0110
:103F7000225F3C4F4091670260916602809165022A
:103F80000E948D0C05C0E25FFC4F118210821282EC
:103F90002196CF30D10591F60E94990B80911E0198
:103FA00090910C03980F90930C0320911F01280F00
:103FB00020931F01121614F49E301CF081958093FB
:103FC0001E01DF91CF911F910F910895AF92BF9283
:103FD000CF92DF92EF92FF920F931F93CF93DF93D5
:103FE000FC01828180FF03C0BB24BA9402C0BB24C1
:103FF000B3942EE0E22E23E0F22E00E113E0C0E0C5
:10400000D0E0F80131971082F7011082F801108298
:1040100094E0C92ED12CA12C80910B038A0D87FD31
:10402000815F082E000C990BC817D90791F4809175
:1040300067028C9DA0018D9D500D112455954795CB
:1040400055954795970160916602809165020E949F
:104050008D0CAB0CF1E0CF1AD108F1F6219684E07B
:10406000E80EF11C0C5F1F4FCF30D10551F60E94B6
:10407000990B80910B0391E0B91206C0811102C027
:104080008EE007C0815005C090E00196BE010E94FD
:10409000D92680930B03DF91CF911F910F91FF9051
:1040A000EF90DF90CF90BF90AF900895EF92FF9286
:1040B0001F93CF93DF93EC018EE0E82E83E0F82E80
:1040C00010E08C8197014091670260916602810F38
:1040D0000E948D0C1F5E84E0E80EF11C1F3F89F7E3
:1040E0000E94990B8A819C8180FF02C09F5F01C062
:1040F00091509C83DF91CF911F91FF90EF90089595
:104100000F931F93CF93DF9300D000D0CDB7DEB7CE
:104110008C0180910D0381110AC09E012F5F3F4FDA
:104120004FEF6FEF0E948D0C8A8180930D03F80191
:104130008481813051F028F0823061F440910D0388
:104140000AC080910D0340E007C060910D0340E07C
:1041500080E003C040E080E060E00E941B0CF801BA
:10416000248130E0C901019663E070E00E94D92605
:1041700084830F900F900F900F90DF91CF911F913C
:104180000F910895CF93DF93EC01E4E6F2E04381D1
:1041900062818C810E942D0D8C818F5F8C83DF91D9
:1041A000CF910895CF93DF93EC01EC81F0E0EB55D4
:1041B000FA4F4491E4E6F2E0628181810E942D0D84
:1041C0008C818F5F8C83DF91CF910895EF92FF9266
:1041D0000F931F93CF93DF93CDB7DEB767970FB6DB
:1041E000F894DEBF0FBECDBF4B8B5C8B6D8B7E8B8F
:1041F0008F8B0E891F8901151105C1F15F3F11F4E5
:104200004F3FA1F1E42EF12CA1E0B0E0042E01C05B
:10421000AA0F0A94EAF7852F90E0662319F02091FF
:104220005F0306C09C01205B3C4FF90120812A23DB
:104230002223A9F046E0489F9001499F300D1124A8
:10424000F701E20FF31FEE0FFF1FEB5BFE4F408104
:104250005181FC01E05BFC4F9081A92B06C0FC0161
:10426000E05BFC4FA0958081A823A08386E0FE013F
:104270003D96DF01982F1D929A95E9F74D875E874D
:104280006F87198B088BDE01179601900D928A9526
:10429000E1F7CE0107960E94FD22811137C086E02A
:1042A000FE013796DE01119601900D928A95E1F795
:1042B000FF81E8856A857B856115710539F1EF3FDE
:1042C00011F4FF3F19F12091910230E0C9010196EC
:1042D000877099274091C20250E08417950779F1C1
:1042E000F983EA837D836C8396E0929FD001939F4C
:1042F000B00D1124AE56BD4FFE01319601900D92C6
:104300009A95E1F7809391020E94F61E16E0809143
:10431000C20290919102891711F1189FC0011124D6
:104320008E569D4F0E94FD228823C9F08091C202C3
:1043300090E00196877099278093C202E8CF10928F
:10434000F6010E94D524109291021092C202EBE86D
:10435000F2E086E0DF011D928A95E9F7D7CF6796F4
:104360000FB6F894DEBF0FBECDBFDF91CF911F9186
:104370000F91FF90EF90089520914E0330914F03DD
:104380008217930771F090934F0380934E03E0914F
:104390003D02F0913E02309721F00084F185E02D3E
:1043A0000994089520914C0330914D03821793078F
:1043B00071F090934D0380934C03E0913D02F09196
:1043C0003E02309721F00680F781E02D0994089590
:1043D000E0913D02F0913E02309721F00190F08192
:1043E000E02D099480E008950F931F93CF93DF93FE
:1043F000C62FD42F022FFC0182818823C9F060933D
:10440000EF010E94C41B90934B0380934A0380E208
:104410008C0F883008F050C0C77081E001C0880F51
:10442000CA95EAF7DF91CF911F910F910C94F32475
:104430001091EF01161330C080914A0390914B0305
:104440000E949A1B883C910538F5C0E2CD0F1D17DC
:10445000B9F080E2810F883040F4177081E001C02C
:10446000880F1A95EAF70E94E824C83048F481E0E2
:104470009D2F977001C0880F9A95EAF70E94F32448
:10448000802F0E945925C830B8F4D77081E001C050
:10449000880FDA95EAF70AC080E28C0F883060F462
:1044A000C77081E001C0880FCA95EAF7DF91CF910C
:1044B0001F910F910C94E824DF91CF911F910F91E0
:1044C0000895CF93DF93D82FC8E08D2F80780E9476
:1044D000011FDD0FC150C9F780E00E94011F85E078
:1044E0008A95F1F7000085E08A95F1F7000080E0F9
:1044F000DF91CF9108958091900282958F7009F09D
:1045000054C080918D02882309F44FC08091C2026B
:10451000A091910260918B0270918C0240918E0269
:1045200050918F02B6E08A1709F43FC090E0411520
:104530005105C1F17F3F11F46F3FA1F1B89FF00128
:10454000B99FF00D1124EE56FD4F218172132AC040
:104550002081621327C02281211124C0238134814C
:104560002417350710F421503109241B350B283C42
:104570003105C0F4209190022F70206120939002A9
:1045800026E0289FF001299FF00D1124E956FD4FE8
:1045900080818F70806180838BE892E00E9472033B
:1045A0000C94F61E01968770BECF08950E94461D9A
:1045B000292F2F7092959F70E92FF0E03297EE30FF
:1045C000F105B8F4EF55FF4F0C94ED26803F99F0BC
:1045D00018F4803E70F40FC0843F59F40CC0803E44
:1045E00050F0813F31F407C0822F869586958695DD
:1045F000089580E0089581E00895BF92CF92DF9200
:10460000EF92FF920F931F93CF93DF93CDB7DEB757
:1046100061970FB6F894DEBF0FBECDBF8C0185E069
:10462000F801DE011D9601900D928A95E1F7D801FF
:104630003C9111962C9111971296EC90129713962B
:10464000CD90DC90149750918B0260918C028091F8
:104650008E0290918F02009709F44FC16F3F19F4B9
:104660005F3F09F44AC1B0908D02BB2009F4ECC051
:1046700040919002C816D90628F0F601E81BF90B04
:10468000CF0104C0809590958C0D9D1DFF24F3945F
:10469000883C910548F0F12C407F09F09FC08BE8E1
:1046A00092E00E94720321C1842F807F09F044C0F0
:1046B000621312C0531310C0E1100EC04F7040615E
:1046C000409390028BE892E00E94720380919002E6
:1046D000D80115968C932EC0CD2819F12F3F11F4D7
:1046E0003F3FF9F0FE2CE1101CC08091C2024091C6
:1046F000910256E0841709F458C090E0589FF001E9
:10470000599FF00D1124EE56FD4F6181261306C00E
:104710006081361303C06281611103C00196877006
:10472000E9CFFE2CEE2009F421C180919002816036
:1047300080939002F12C1AC162130AC0531308C06F
:10474000E11006C080919002D80115968C93B0C0FC
:104750003D872E878D859E850E94D6228823D1F1A4
:10476000EE20C1F120919002822F82958F7090E00F
:10477000029774F080918B0290918C0298878F83BE
:104780001986DB86CA862C87CE0107960E947203A3
:1047900086E0F801ABE8B2E001900D928A95E1F76E
:1047A0000E947B22FF24F394E1C03D872E878D85F4
:1047B0009E850E94461D292F22952F7030E02230C1
:1047C00031050CF0C7C09F7009F0C1C0805E883011
:1047D00008F4CCC0C8010E947203E4CF621314C075
:1047E000531312C0E11010C080919002F80185832C
:1047F000C8010E94720386E0EBE8F2E0DF011D923F
:104800008A95E9F7FB2CB2C03D872E878D859E8562
:104810000E94D6228823F1F2EE20E1F2209190024C
:10482000822F82958F7090E002970CF4B1CF809127
:104830008B0290918C029A8389831B82DD82CC82C9
:104840002E83CE010196A2CFC816D90638F0C81A19
:10485000D90AB8ECCB16D10450F007C080959095DA
:104860008C0D9D1D883C910510F0F12C3EC0FE2C56
:10487000EE2009F4AFCF621327C0531325C0209157
:10488000900220FD18C0822F82958F70482F50E033
:104890004115510581F0F80125834F30510541F054
:1048A0008F5F982F9295907F822F8F70892B8583B1
:1048B000C8010E94720386E0F801ABE8B2E0019003
:1048C0000D928A95E1F752C03D872E878D859E8592
:1048D0000E94D62281115CCF8091900281608093EA
:1048E0009002C8010E94720341C0EBE8F2E086E04A
:1048F000DF011D928A95E9F739C0EE2009F46ACFED
:104900003D872E878D859E850E94D622F82E88238E
:1049100009F460CF86E0F801ABE8B2E001900D92B7
:104920008A95E1F780918B0290918C020E94461D3E
:1049300092959F70963041F480915F0391E08927B2
:1049400080935F0390935E030E947B220FC08111CE
:104950003DCF0CC0243031050CF03CCF9F7009F4E2
:1049600035CFF8019581907F09F030CF8F2D61967A
:104970000FB6F894DEBF0FBECDBFDF91CF911F9170
:104980000F91FF90EF90DF90CF90BF90089510921D
:104990000103109200030E94BF1C80E090E00E947F
:1049A000D22180E090E00C94BC21809111018823F9
:1049B00031F080913A0287FF02C08EE101C086E0AB
:1049C000EDE6F2E0DF011D928A95E9F70C94C72429
:1049D000882341F080959091F60189238093F60118
:1049E0000C94BF1C0895882339F09091F601892B0F
:1049F0008093F6010C94BF1C0895882309F458C0D5
:104A0000682F823869F40E94E82181FF51C069E370
:104A10008BE692E00E94241C0E94BF1C69E30EC03A
:104A2000833891F40E94E82180FF42C063E58BE661
:104A300092E00E94241C0E94BF1C63E58BE692E07A
:104A40000E94F91B0C94BF1C843869F40E94E82171
:104A500082FF2EC067E48BE692E00E94241C0E9435
:104A6000BF1C67E4EBCF8CEF860F813A38F380E20E
:104A7000860F883070F4677081E090E001C0880F85
:104A80006A95EAF780959091F60189238093F60163
:104A9000D9CF8BE5860F833020F480E090E00C9432
:104AA000D221685A673120F480E090E00C94BC2158
:104AB0000895CF93C82F0E946C25C93349F42FEF76
:104AC00083EC99E0215080409040E1F700C0000065
:104AD0008C2FCF910C94FD24882309F40DC1682FED
:104AE0008238B1F40E94E82181FD06C169E38BE6BA
:104AF00092E00E94241C0E94BF1C2FEF81EE94E0E4
:104B0000215080409040E1F700C0000069E317C0E9
:104B10008338D9F40E94E82180FDEEC063E58BE67E
:104B200092E00E94241C0E94BF1C2FEF81EE94E0B3
:104B3000215080409040E1F700C0000063E58BE623
:104B400092E00E94F91B0C94BF1C8438B1F40E94BF
:104B5000E82182FDD1C067E48BE692E00E94241C2C
:104B60000E94BF1C2FEF81EE94E0215080409040C6
:104B7000E1F700C0000067E4E2CF8CEF860F813AD6
:104B800028F48BE692E00E94241CDDCF80E2860FA1
:104B9000883068F4677081E090E001C0880F6A9502
:104BA000EAF79091F601892B8093F601CCCF8BE543
:104BB000860F833070F4653A29F0663A31F083E865
:104BC00090E005C081E890E002C082E890E00C949B
:104BD000D22188E5860F873108F08EC0683A09F443
:104BE00045C0693A09F445C06A3A09F445C06B3AD0
:104BF00009F445C06C3A09F445C06B3B09F445C063
:104C00006C3B09F445C06D3A09F445C0603B09F4BA
:104C100045C06E3A09F445C06F3A09F445C0613B9E
:104C200009F445C0623B09F445C0633B09F445C043
:104C3000643B09F445C0653B09F445C0663B09F493
:104C400045C0673B09F445C0683B09F445C0693B72
:104C500009F445C06D3B09F445C06E3B09F445C0FD
:104C60006A3B09F445C080E090E044C082EE90E0E9
:104C700041C089EE90E03EC08AEE90E03BC085EBFB
:104C800090E038C086EB90E035C083EB90E032C016
:104C900084EB90E02FC087EB90E02CC08CEC90E090
:104CA00029C08DEC90E026C083E891E023C08AE81B
:104CB00091E020C082E991E01DC084E991E01AC032
:104CC00081E292E017C083E292E014C084E292E0B5
:104CD00011C085E292E00EC086E292E00BC087E24E
:104CE00092E008C08FE690E005C080E790E002C047
:104CF0008AE292E00C94BC210895F999FECF92BD0E
:104D000081BDF89A992780B50895A6E1B0E044E006
:104D100050E00C94B726A8E1B0E042E050E00C94DB
:104D2000B726262FF999FECF92BD81BDF89A01973B
:104D300000B4021639F01FBA20BD0FB6F894FA9AE3
:104D4000F99A0FBE08950396272F0E9492260E947B
:104D50009126252F0E949226242F0C9492260196AC
:104D6000272F0E9492260C949126DC01CB01FC0196
:104D7000F999FECF06C0F2BDE1BDF89A319600B4B4
:104D80000D9241505040B8F70895AA1BBB1B51E14A
:104D900007C0AA1FBB1FA617B70710F0A61BB70BAB
:104DA000881F991F5A95A9F780959095BC01CD0150
:104DB000089597FB072E16F4009407D077FD09D0CD
:104DC0000E94C52607FC05D03EF4909581959F4F23
:104DD0000895709561957F4F0895EE0FFF1F059020
:104DE000F491E02D0994CF93DF938230910510F474
:104DF00082E090E0E0916203F091630320E030E014
:104E0000C0E0D0E0309711F1408151814817590737
:104E1000C0F04817590761F482819381209719F0F7
:104E20009B838A832BC0909363038093620326C085
:104E30002115310519F04217530718F49A01BE01E4
:104E4000DF01EF010280F381E02DDCCF2115310578
:104E500009F1281B390B2430310590F412968D91FD
:104E60009C9113976115710521F0FB019383828357
:104E700004C09093630380936203FD01329644C0A3
:104E8000FD01E20FF31F81939193225031092D937D
:104E90003C933AC02091600330916103232B41F48D
:104EA000209102013091030130936103209360034C
:104EB00020910001309101012115310541F42DB7F8
:104EC0003EB74091040150910501241B350BE09140
:104ED0006003F0916103E217F307A0F42E1B3F0B70
:104EE0002817390778F0AC014E5F5F4F241735075C
:104EF00048F04E0F5F1F509361034093600381930E
:104F0000919302C0E0E0F0E0CF01DF91CF910895EE
:104F10000F931F93CF93DF93009709F48CC0FC018C
:104F2000329713821282009162031091630301157C
:104F3000110581F420813181820F931F209160033C
:104F4000309161032817390779F5F0936103E093F5
:104F5000600371C0D80140E050E0AE17BF0750F4C5
:104F600012962D913C911397AD012115310509F150
:104F7000D901F3CF9D01DA013383228360817181EE
:104F8000860F971F8217930769F4EC0128813981F6
:104F9000260F371F2E5F3F4F318320838A819B81ED
:104FA00093838283452B29F4F0936303E093620398
:104FB00042C01396FC93EE931297ED0149915991DB
:104FC0009E01240F351FE217F30771F48081918150
:104FD000840F951F029611969C938E9382819381E4
:104FE00013969C938E931297E0E0F0E0D80112960E
:104FF0008D919C911397009719F0F8018C01F6CFD1
:105000008D919C9198012E5F3F4F820F931F2091AD
:105010006003309161032817390769F4309729F448
:10502000109263031092620302C0138212821093E3
:10503000610300936003DF91CF911F910F91089559
:10504000FC014150504030F001900616D1F73197E5
:0E505000CF010895882799270895F894FFCF7F
:10505E0000006403200001191A1B1C1D1E1F2021B5
:10506E0022012000251B281B241BA9176B170102E8
:10507E000001020202020606060909090909090FC2
:10508E000F0F0F0F0F1515151819191919191919C1
:10509E001919192324000D010D020D030D040D0520
:1050AE000D000C010C020C030C040C050C000B0182
:1050BE000B020B030B040B050B000A010A020A0379
:1050CE000A040A050A00090109020903090409056F
:1050DE000900080108020803080408050800070172
:1050EE000702070307040705070006010602060369
:1050FE00060406050600050105020503050405055F
:10510E000500040104020403040404050400030161
:10511E000302030303040305030002010202020358
:10512E00020402050200010101020103010401054E
:0E513E00010000010002000300040005000053
:00000001FF
